{"abi":[{"type":"constructor","inputs":[{"name":"_wtiToken","type":"address","internalType":"address"},{"name":"_usdcToken","type":"address","internalType":"address"},{"name":"_factory","type":"address","internalType":"address"},{"name":"_fee","type":"uint24","internalType":"uint24"},{"name":"_targetPrice","type":"uint256","internalType":"uint256"},{"name":"_initialSqrtPriceX96","type":"uint160","internalType":"uint160"}],"stateMutability":"nonpayable"},{"type":"function","name":"calculateWTIprice","inputs":[{"name":"sqrtPriceX96","type":"uint256","internalType":"uint256"}],"outputs":[{"name":"","type":"uint256","internalType":"uint256"}],"stateMutability":"pure"},{"type":"function","name":"createAndInitializePool","inputs":[],"outputs":[{"name":"","type":"address","internalType":"address"}],"stateMutability":"nonpayable"},{"type":"function","name":"factory","inputs":[],"outputs":[{"name":"","type":"address","internalType":"contract IUniswapV3Factory"}],"stateMutability":"view"},{"type":"function","name":"initialSqrtPriceX96","inputs":[],"outputs":[{"name":"","type":"uint160","internalType":"uint160"}],"stateMutability":"view"},{"type":"function","name":"pool","inputs":[],"outputs":[{"name":"","type":"address","internalType":"contract IUniswapV3Pool"}],"stateMutability":"view"},{"type":"function","name":"poolAddress","inputs":[],"outputs":[{"name":"","type":"address","internalType":"address"}],"stateMutability":"view"},{"type":"function","name":"poolFee","inputs":[],"outputs":[{"name":"","type":"uint24","internalType":"uint24"}],"stateMutability":"view"},{"type":"function","name":"targetPrice","inputs":[],"outputs":[{"name":"","type":"uint256","internalType":"uint256"}],"stateMutability":"view"},{"type":"function","name":"usdcToken","inputs":[],"outputs":[{"name":"","type":"address","internalType":"address"}],"stateMutability":"view"},{"type":"function","name":"wtiToken","inputs":[],"outputs":[{"name":"","type":"address","internalType":"address"}],"stateMutability":"view"}],"bytecode":{"object":"0x61014060405234801561001157600080fd5b50604051610d68380380610d6883398101604081905261003091610078565b6001600160a01b0395861660805293851660a0529184166101205262ffffff1660c05260e05216610100526100fd565b6001600160a01b038116811461007557600080fd5b50565b60008060008060008060c0878903121561009157600080fd5b865161009c81610060565b60208801519096506100ad81610060565b60408801519095506100be81610060565b606088015190945062ffffff811681146100d757600080fd5b608088015160a089015191945092506100ef81610060565b809150509295509295509295565b60805160a05160c05160e0516101005161012051610bd86101906000396000818161019d01526102ca0152600081816101c40152818161056d01526105b40152600081816101eb015281816106d9015261071901526000818160a8015261029c01526000818160e80152818161027401526104c301526000818161014d0152818161024c01526104460152610bd86000f3fe608060405234801561001057600080fd5b506004361061009e5760003560e01c80633c1fdca6116100665780633c1fdca61461016f57806386b2325c14610190578063c45a015514610198578063d404b263146101bf578063dc38679c146101e657600080fd5b8063089fe6aa146100a357806311eac855146100e357806316f0115b146101225780631755ff2114610135578063353d8c9514610148575b600080fd5b6100ca7f000000000000000000000000000000000000000000000000000000000000000081565b60405162ffffff90911681526020015b60405180910390f35b61010a7f000000000000000000000000000000000000000000000000000000000000000081565b6040516001600160a01b0390911681526020016100da565b60015461010a906001600160a01b031681565b60005461010a906001600160a01b031681565b61010a7f000000000000000000000000000000000000000000000000000000000000000081565b61018261017d3660046109ae565b61020d565b6040519081526020016100da565b61010a610235565b61010a7f000000000000000000000000000000000000000000000000000000000000000081565b61010a7f000000000000000000000000000000000000000000000000000000000000000081565b6101827f000000000000000000000000000000000000000000000000000000000000000081565b600061022f61021c83806109dd565b670de0b6b3a7640000600160c01b6107bd565b92915050565b60405163a167129560e01b81526001600160a01b037f0000000000000000000000000000000000000000000000000000000000000000811660048301527f0000000000000000000000000000000000000000000000000000000000000000811660248301527f000000000000000000000000000000000000000000000000000000000000000062ffffff1660448301526000917f00000000000000000000000000000000000000000000000000000000000000009091169063a1671295906064016020604051808303816000875af1158015610315573d6000803e3d6000fd5b505050506040513d601f19601f820116820180604052508101906103399190610a09565b600080546001600160a01b03929092166001600160a01b03199283168117825560018054909316811790925560408051630dfe168160e01b81529051919291630dfe1681916004808201926020929091908290030181865afa1580156103a3573d6000803e3d6000fd5b505050506040513d601f19601f820116820180604052508101906103c79190610a09565b90506000600160009054906101000a90046001600160a01b03166001600160a01b031663d21220a76040518163ffffffff1660e01b8152600401602060405180830381865afa15801561041e573d6000803e3d6000fd5b505050506040513d601f19601f820116820180604052508101906104429190610a09565b90507f00000000000000000000000000000000000000000000000000000000000000006001600160a01b0316826001600160a01b0316146104c15760405162461bcd60e51b815260206004820152601460248201527305754492073686f756c6420626520746f6b656e360641b60448201526064015b60405180910390fd5b7f00000000000000000000000000000000000000000000000000000000000000006001600160a01b0316816001600160a01b03161461053a5760405162461bcd60e51b8152602060048201526015602482015274555344432073686f756c6420626520746f6b656e3160581b60448201526064016104b8565b61059a6040518060400160405280601581526020017424b734ba34b0b61039b8b93a283934b1b2ac1c9b1d60591b8152507f00000000000000000000000000000000000000000000000000000000000000006001600160a01b0316610938565b60015460405163f637731d60e01b81526001600160a01b037f0000000000000000000000000000000000000000000000000000000000000000811660048301529091169063f637731d90602401600060405180830381600087803b15801561060157600080fd5b505af1158015610615573d6000803e3d6000fd5b505050506000600160009054906101000a90046001600160a01b03166001600160a01b0316633850c7bd6040518163ffffffff1660e01b815260040160e060405180830381865afa15801561066e573d6000803e3d6000fd5b505050506040513d601f19601f820116820180604052508101906106929190610a3d565b505050505050905060006106ae826001600160a01b031661020d565b90506106d2604051806060016040528060248152602001610b7f6024913982610938565b60646106ff7f000000000000000000000000000000000000000000000000000000000000000060636109dd565b6107099190610ae1565b8111801561074c5750606461073f7f000000000000000000000000000000000000000000000000000000000000000060656109dd565b6107499190610ae1565b81105b6107a85760405162461bcd60e51b815260206004820152602760248201527f5072696365207369676e69666963616e746c7920646966666572732066726f6d604482015266081d185c99d95d60ca1b60648201526084016104b8565b50506000546001600160a01b03169392505050565b60008080600019858709858702925082811083820303915050806000036107f657600084116107eb57600080fd5b508290049050610931565b80841161080257600080fd5b60008486880980840393811190920391905060008561082381196001610b03565b1695869004959384900493600081900304600101905061084381846109dd565b9093179260006108548760036109dd565b600218905061086381886109dd565b61086e906002610b16565b61087890826109dd565b905061088481886109dd565b61088f906002610b16565b61089990826109dd565b90506108a581886109dd565b6108b0906002610b16565b6108ba90826109dd565b90506108c681886109dd565b6108d1906002610b16565b6108db90826109dd565b90506108e781886109dd565b6108f2906002610b16565b6108fc90826109dd565b905061090881886109dd565b610913906002610b16565b61091d90826109dd565b905061092981866109dd565b955050505050505b9392505050565b61097d828260405160240161094e929190610b29565b60408051601f198184030181529190526020810180516001600160e01b0316632d839cb360e21b179052610981565b5050565b61098a8161098d565b50565b60006a636f6e736f6c652e6c6f679050600080835160208501845afa505050565b6000602082840312156109c057600080fd5b5035919050565b634e487b7160e01b600052601160045260246000fd5b808202811582820484141761022f5761022f6109c7565b6001600160a01b038116811461098a57600080fd5b600060208284031215610a1b57600080fd5b8151610931816109f4565b805161ffff81168114610a3857600080fd5b919050565b600080600080600080600060e0888a031215610a5857600080fd5b8751610a63816109f4565b8097505060208801518060020b8114610a7b57600080fd5b9550610a8960408901610a26565b9450610a9760608901610a26565b9350610aa560808901610a26565b925060a088015160ff81168114610abb57600080fd5b60c08901519092508015158114610ad157600080fd5b8091505092959891949750929550565b600082610afe57634e487b7160e01b600052601260045260246000fd5b500490565b8082018082111561022f5761022f6109c7565b8181038181111561022f5761022f6109c7565b604081526000835180604084015260005b81811015610b575760208187018101516060868401015201610b3a565b506000606082850101526060601f19601f830116840101915050826020830152939250505056fe57544920707269636520696e2055534443202877697468203620646563696d616c73293aa2646970667358221220ddab501a4ef578b0fa7dc4c35f9dbb9b1db6c32e4a615e547de37f0152146fba64736f6c634300081a0033","linkReferences":{}},"methodIdentifiers":{"calculateWTIprice(uint256)":"3c1fdca6","createAndInitializePool()":"86b2325c","factory()":"c45a0155","initialSqrtPriceX96()":"d404b263","pool()":"16f0115b","poolAddress()":"1755ff21","poolFee()":"089fe6aa","targetPrice()":"dc38679c","usdcToken()":"11eac855","wtiToken()":"353d8c95"},"id":28}