{"abi":[{"type":"constructor","inputs":[{"name":"_nonfungiblePositionManager","type":"address","internalType":"contract INonfungiblePositionManager"},{"name":"_wtiToken","type":"address","internalType":"address"},{"name":"_usdcToken","type":"address","internalType":"address"},{"name":"_poolFee","type":"uint24","internalType":"uint24"}],"stateMutability":"nonpayable"},{"type":"function","name":"addLiquidity","inputs":[{"name":"amountUSDC","type":"uint256","internalType":"uint256"},{"name":"amountWTI","type":"uint256","internalType":"uint256"},{"name":"tickLower","type":"int24","internalType":"int24"},{"name":"tickUpper","type":"int24","internalType":"int24"}],"outputs":[{"name":"tokenId","type":"uint256","internalType":"uint256"},{"name":"liquidity","type":"uint128","internalType":"uint128"},{"name":"amount0","type":"uint256","internalType":"uint256"},{"name":"amount1","type":"uint256","internalType":"uint256"}],"stateMutability":"nonpayable"},{"type":"function","name":"addLiquidity","inputs":[{"name":"amountUSDC","type":"uint256","internalType":"uint256"},{"name":"amountWTI","type":"uint256","internalType":"uint256"}],"outputs":[{"name":"tokenId","type":"uint256","internalType":"uint256"},{"name":"liquidity","type":"uint128","internalType":"uint128"},{"name":"amount0","type":"uint256","internalType":"uint256"},{"name":"amount1","type":"uint256","internalType":"uint256"}],"stateMutability":"nonpayable"},{"type":"function","name":"getPositionLiquidity","inputs":[{"name":"_tokenId","type":"uint256","internalType":"uint256"}],"outputs":[{"name":"liquidity","type":"uint128","internalType":"uint128"}],"stateMutability":"view"},{"type":"function","name":"lastPositionId","inputs":[],"outputs":[{"name":"","type":"uint256","internalType":"uint256"}],"stateMutability":"view"},{"type":"function","name":"nonfungiblePositionManager","inputs":[],"outputs":[{"name":"","type":"address","internalType":"contract INonfungiblePositionManager"}],"stateMutability":"view"},{"type":"function","name":"onERC721Received","inputs":[{"name":"operator","type":"address","internalType":"address"},{"name":"","type":"address","internalType":"address"},{"name":"tokenId","type":"uint256","internalType":"uint256"},{"name":"","type":"bytes","internalType":"bytes"}],"outputs":[{"name":"","type":"bytes4","internalType":"bytes4"}],"stateMutability":"nonpayable"},{"type":"function","name":"poolFee","inputs":[],"outputs":[{"name":"","type":"uint24","internalType":"uint24"}],"stateMutability":"view"},{"type":"function","name":"positions","inputs":[{"name":"","type":"uint256","internalType":"uint256"}],"outputs":[{"name":"owner","type":"address","internalType":"address"},{"name":"liquidity","type":"uint128","internalType":"uint128"},{"name":"token0","type":"address","internalType":"address"},{"name":"token1","type":"address","internalType":"address"}],"stateMutability":"view"},{"type":"function","name":"usdcToken","inputs":[],"outputs":[{"name":"","type":"address","internalType":"address"}],"stateMutability":"view"},{"type":"function","name":"wtiToken","inputs":[],"outputs":[{"name":"","type":"address","internalType":"address"}],"stateMutability":"view"}],"bytecode":{"object":"0x61010060405234801561001157600080fd5b506040516112933803806112938339810160408190526100309161006f565b6001600160a01b0393841660805291831660a05290911660c05262ffffff1660e0526100d6565b6001600160a01b038116811461006c57600080fd5b50565b6000806000806080858703121561008557600080fd5b845161009081610057565b60208601519094506100a181610057565b60408601519093506100b281610057565b606086015190925062ffffff811681146100cb57600080fd5b939692955090935050565b60805160a05160c05160e05161111661017d6000396000818160a801526104d601526000818160e8015281816103ab01528181610422015281816104a701528181610630015261073601526000818161017e0152818161037f015281816103d701528181610478015281816105fe01526106f3015260008181610295015281816102ee015281816103f80152818161044301528181610564015261079901526111166000f3fe608060405234801561001057600080fd5b506004361061009e5760003560e01c806348cce9f81161006657806348cce9f8146101a057806358354502146101db57806399fbab88146101f25780639cd441da1461027d578063b44a27221461029057600080fd5b8063089fe6aa146100a357806311eac855146100e3578063150b7a02146101225780631efeed331461014e578063353d8c9514610179575b600080fd5b6100ca7f000000000000000000000000000000000000000000000000000000000000000081565b60405162ffffff90911681526020015b60405180910390f35b61010a7f000000000000000000000000000000000000000000000000000000000000000081565b6040516001600160a01b0390911681526020016100da565b610135610130366004610cc8565b6102b7565b6040516001600160e01b031990911681526020016100da565b61016161015c366004610d69565b6102d5565b6040516001600160801b0390911681526020016100da565b61010a7f000000000000000000000000000000000000000000000000000000000000000081565b6101b36101ae366004610d91565b610374565b604080519485526001600160801b0390931660208501529183015260608201526080016100da565b6101e460005481565b6040519081526020016100da565b610241610200366004610d69565b600160208190526000918252604090912080549181015460028201546003909201546001600160a01b03938416936001600160801b03909216928216911684565b604080516001600160a01b0395861681526001600160801b039094166020850152918416918301919091529190911660608201526080016100da565b6101b361028b366004610ddb565b61076a565b61010a7f000000000000000000000000000000000000000000000000000000000000000081565b60006102c38487610792565b50630a85bd0160e11b95945050505050565b60405163133f757160e31b8152600481018290526000907f00000000000000000000000000000000000000000000000000000000000000006001600160a01b0316906399fbab889060240161018060405180830381865afa15801561033e573d6000803e3d6000fd5b505050506040513d601f19601f820116820180604052508101906103629190610e42565b50929c9b505050505050505050505050565b6000806000806103a67f000000000000000000000000000000000000000000000000000000000000000033308a61094c565b6103d27f000000000000000000000000000000000000000000000000000000000000000033308b61094c565b61041d7f00000000000000000000000000000000000000000000000000000000000000007f000000000000000000000000000000000000000000000000000000000000000089610a81565b6104687f00000000000000000000000000000000000000000000000000000000000000007f00000000000000000000000000000000000000000000000000000000000000008a610a81565b60006040518061016001604052807f00000000000000000000000000000000000000000000000000000000000000006001600160a01b031681526020017f00000000000000000000000000000000000000000000000000000000000000006001600160a01b031681526020017f000000000000000000000000000000000000000000000000000000000000000062ffffff1681526020018860020b81526020018760020b81526020018981526020018a81526020016000815260200160008152602001306001600160a01b03168152602001426103846105489190610f3a565b9052604051634418b22b60e11b81529091506001600160a01b037f00000000000000000000000000000000000000000000000000000000000000001690638831645690610599908490600401610f53565b6080604051808303816000875af11580156105b8573d6000803e3d6000fd5b505050506040513d601f19601f820116820180604052508101906105dc9190611017565b604080516080810182523381526001600160801b0380861660208084019182527f00000000000000000000000000000000000000000000000000000000000000006001600160a01b039081168587019081527f000000000000000000000000000000000000000000000000000000000000000082166060870190815260008c8152600194859052978820965187549084166001600160a01b031991821617885594519387018054949096166fffffffffffffffffffffffffffffffff199094169390931790945592516002850180549185169184169190911790555160039093018054939092169216919091179055849055929750909550935091508288111561071b5760006106ec848a611053565b90506107197f00000000000000000000000000000000000000000000000000000000000000003383610b9c565b505b8189111561075e57600061072f838b611053565b905061075c7f00000000000000000000000000000000000000000000000000000000000000003383610b9c565b505b50945094509450949050565b60008080806107828686620d89e7196101ae81611066565b9299919850965090945092505050565b60008060007f00000000000000000000000000000000000000000000000000000000000000006001600160a01b03166399fbab88866040518263ffffffff1660e01b81526004016107e591815260200190565b61018060405180830381865afa158015610803573d6000803e3d6000fd5b505050506040513d601f19601f820116820180604052508101906108279190610e42565b5050505097505050509450945050506040518060800160405280856001600160a01b03168152602001826001600160801b03168152602001846001600160a01b03168152602001836001600160a01b03168152506001600087815260200190815260200160002060008201518160000160006101000a8154816001600160a01b0302191690836001600160a01b0316021790555060208201518160010160006101000a8154816001600160801b0302191690836001600160801b0316021790555060408201518160020160006101000a8154816001600160a01b0302191690836001600160a01b0316021790555060608201518160030160006101000a8154816001600160a01b0302191690836001600160a01b031602179055509050505050505050565b604080516001600160a01b0385811660248301528481166044830152606480830185905283518084039091018152608490920183526020820180516001600160e01b03166323b872dd60e01b17905291516000928392908816916109b09190611088565b6000604051808303816000865af19150503d80600081146109ed576040519150601f19603f3d011682016040523d82523d6000602084013e6109f2565b606091505b5091509150818015610a1c575080511580610a1c575080806020019051810190610a1c91906110b7565b610a795760405162461bcd60e51b8152602060048201526024808201527f5472616e7366657248656c7065723a205452414e534645525f46524f4d5f46416044820152631253115160e21b60648201526084015b60405180910390fd5b505050505050565b604080516001600160a01b038481166024830152604480830185905283518084039091018152606490920183526020820180516001600160e01b031663095ea7b360e01b1790529151600092839290871691610add9190611088565b6000604051808303816000865af19150503d8060008114610b1a576040519150601f19603f3d011682016040523d82523d6000602084013e610b1f565b606091505b5091509150818015610b49575080511580610b49575080806020019051810190610b4991906110b7565b610b955760405162461bcd60e51b815260206004820152601e60248201527f5472616e7366657248656c7065723a20415050524f56455f4641494c454400006044820152606401610a70565b5050505050565b604080516001600160a01b038481166024830152604480830185905283518084039091018152606490920183526020820180516001600160e01b031663a9059cbb60e01b1790529151600092839290871691610bf89190611088565b6000604051808303816000865af19150503d8060008114610c35576040519150601f19603f3d011682016040523d82523d6000602084013e610c3a565b606091505b5091509150818015610c64575080511580610c64575080806020019051810190610c6491906110b7565b610b955760405162461bcd60e51b815260206004820152601f60248201527f5472616e7366657248656c7065723a205452414e534645525f4641494c4544006044820152606401610a70565b6001600160a01b0381168114610cc557600080fd5b50565b600080600080600060808688031215610ce057600080fd5b8535610ceb81610cb0565b94506020860135610cfb81610cb0565b935060408601359250606086013567ffffffffffffffff811115610d1e57600080fd5b8601601f81018813610d2f57600080fd5b803567ffffffffffffffff811115610d4657600080fd5b886020828401011115610d5857600080fd5b959894975092955050506020019190565b600060208284031215610d7b57600080fd5b5035919050565b8060020b8114610cc557600080fd5b60008060008060808587031215610da757600080fd5b84359350602085013592506040850135610dc081610d82565b91506060850135610dd081610d82565b939692955090935050565b60008060408385031215610dee57600080fd5b50508035926020909101359150565b8051610e0881610cb0565b919050565b805162ffffff81168114610e0857600080fd5b8051610e0881610d82565b80516001600160801b0381168114610e0857600080fd5b6000806000806000806000806000806000806101808d8f031215610e6557600080fd5b8c516bffffffffffffffffffffffff81168114610e8157600080fd5b9b50610e8f60208e01610dfd565b9a50610e9d60408e01610dfd565b9950610eab60608e01610dfd565b9850610eb960808e01610e0d565b9750610ec760a08e01610e20565b9650610ed560c08e01610e20565b9550610ee360e08e01610e2b565b6101008e01516101208f015191965094509250610f036101408e01610e2b565b9150610f126101608e01610e2b565b90509295989b509295989b509295989b565b634e487b7160e01b600052601160045260246000fd5b80820180821115610f4d57610f4d610f24565b92915050565b81516001600160a01b0316815261016081016020830151610f7f60208401826001600160a01b03169052565b506040830151610f96604084018262ffffff169052565b506060830151610fab606084018260020b9052565b506080830151610fc0608084018260020b9052565b5060a083015160a083015260c083015160c083015260e083015160e08301526101008301516101008301526101208301516110076101208401826001600160a01b03169052565b5061014092830151919092015290565b6000806000806080858703121561102d57600080fd5b8451935061103d60208601610e2b565b6040860151606090960151949790965092505050565b81810381811115610f4d57610f4d610f24565b60008160020b627fffff19810361107f5761107f610f24565b60000392915050565b6000825160005b818110156110a9576020818601810151858301520161108f565b506000920191825250919050565b6000602082840312156110c957600080fd5b815180151581146110d957600080fd5b939250505056fea2646970667358221220acbef9a68c58db2834dd0456f422788840e8ab671d5b5432047cad66944f05d364736f6c634300081a0033","linkReferences":{}},"methodIdentifiers":{"addLiquidity(uint256,uint256)":"9cd441da","addLiquidity(uint256,uint256,int24,int24)":"48cce9f8","getPositionLiquidity(uint256)":"1efeed33","lastPositionId()":"58354502","nonfungiblePositionManager()":"b44a2722","onERC721Received(address,address,uint256,bytes)":"150b7a02","poolFee()":"089fe6aa","positions(uint256)":"99fbab88","usdcToken()":"11eac855","wtiToken()":"353d8c95"},"id":26}