{"abi":[{"type":"constructor","inputs":[{"name":"_nonfungiblePositionManager","type":"address","internalType":"contract INonfungiblePositionManager"},{"name":"_wtiToken","type":"address","internalType":"address"},{"name":"_usdcToken","type":"address","internalType":"address"},{"name":"_poolFee","type":"uint24","internalType":"uint24"}],"stateMutability":"nonpayable"},{"type":"function","name":"addLiquidity","inputs":[{"name":"amountUSDC","type":"uint256","internalType":"uint256"},{"name":"amountWTI","type":"uint256","internalType":"uint256"},{"name":"tickLower","type":"int24","internalType":"int24"},{"name":"tickUpper","type":"int24","internalType":"int24"}],"outputs":[{"name":"tokenId","type":"uint256","internalType":"uint256"},{"name":"liquidity","type":"uint128","internalType":"uint128"},{"name":"amount0","type":"uint256","internalType":"uint256"},{"name":"amount1","type":"uint256","internalType":"uint256"}],"stateMutability":"nonpayable"},{"type":"function","name":"addLiquidity","inputs":[{"name":"amountUSDC","type":"uint256","internalType":"uint256"},{"name":"amountWTI","type":"uint256","internalType":"uint256"}],"outputs":[{"name":"tokenId","type":"uint256","internalType":"uint256"},{"name":"liquidity","type":"uint128","internalType":"uint128"},{"name":"amount0","type":"uint256","internalType":"uint256"},{"name":"amount1","type":"uint256","internalType":"uint256"}],"stateMutability":"nonpayable"},{"type":"function","name":"getPositionLiquidity","inputs":[{"name":"_tokenId","type":"uint256","internalType":"uint256"}],"outputs":[{"name":"liquidity","type":"uint128","internalType":"uint128"}],"stateMutability":"view"},{"type":"function","name":"lastPositionId","inputs":[],"outputs":[{"name":"","type":"uint256","internalType":"uint256"}],"stateMutability":"view"},{"type":"function","name":"nonfungiblePositionManager","inputs":[],"outputs":[{"name":"","type":"address","internalType":"contract INonfungiblePositionManager"}],"stateMutability":"view"},{"type":"function","name":"onERC721Received","inputs":[{"name":"operator","type":"address","internalType":"address"},{"name":"","type":"address","internalType":"address"},{"name":"tokenId","type":"uint256","internalType":"uint256"},{"name":"","type":"bytes","internalType":"bytes"}],"outputs":[{"name":"","type":"bytes4","internalType":"bytes4"}],"stateMutability":"nonpayable"},{"type":"function","name":"poolFee","inputs":[],"outputs":[{"name":"","type":"uint24","internalType":"uint24"}],"stateMutability":"view"},{"type":"function","name":"positions","inputs":[{"name":"","type":"uint256","internalType":"uint256"}],"outputs":[{"name":"owner","type":"address","internalType":"address"},{"name":"liquidity","type":"uint128","internalType":"uint128"},{"name":"token0","type":"address","internalType":"address"},{"name":"token1","type":"address","internalType":"address"}],"stateMutability":"view"},{"type":"function","name":"usdcToken","inputs":[],"outputs":[{"name":"","type":"address","internalType":"address"}],"stateMutability":"view"},{"type":"function","name":"wtiToken","inputs":[],"outputs":[{"name":"","type":"address","internalType":"address"}],"stateMutability":"view"}],"bytecode":{"object":"0x61010060405234801561001157600080fd5b506040516112803803806112808339810160408190526100309161006f565b6001600160a01b0393841660805291831660a05290911660c05262ffffff1660e0526100d6565b6001600160a01b038116811461006c57600080fd5b50565b6000806000806080858703121561008557600080fd5b845161009081610057565b60208601519094506100a181610057565b60408601519093506100b281610057565b606086015190925062ffffff811681146100cb57600080fd5b939692955090935050565b60805160a05160c05160e05161110361017d6000396000818160a801526104d601526000818160e8015281816103ab01528181610422015281816104a701528181610630015261072101526000818161017e0152818161037f015281816103d701528181610478015281816105fe01526106e5015260008181610295015281816102ee015281816103f80152818161044301528181610564015261078601526111036000f3fe608060405234801561001057600080fd5b506004361061009e5760003560e01c806348cce9f81161006657806348cce9f8146101a057806358354502146101db57806399fbab88146101f25780639cd441da1461027d578063b44a27221461029057600080fd5b8063089fe6aa146100a357806311eac855146100e3578063150b7a02146101225780631efeed331461014e578063353d8c9514610179575b600080fd5b6100ca7f000000000000000000000000000000000000000000000000000000000000000081565b60405162ffffff90911681526020015b60405180910390f35b61010a7f000000000000000000000000000000000000000000000000000000000000000081565b6040516001600160a01b0390911681526020016100da565b610135610130366004610cb5565b6102b7565b6040516001600160e01b031990911681526020016100da565b61016161015c366004610d56565b6102d5565b6040516001600160801b0390911681526020016100da565b61010a7f000000000000000000000000000000000000000000000000000000000000000081565b6101b36101ae366004610d7e565b610374565b604080519485526001600160801b0390931660208501529183015260608201526080016100da565b6101e460005481565b6040519081526020016100da565b610241610200366004610d56565b600160208190526000918252604090912080549181015460028201546003909201546001600160a01b03938416936001600160801b03909216928216911684565b604080516001600160a01b0395861681526001600160801b039094166020850152918416918301919091529190911660608201526080016100da565b6101b361028b366004610dc8565b610757565b61010a7f000000000000000000000000000000000000000000000000000000000000000081565b60006102c3848761077f565b50630a85bd0160e11b95945050505050565b60405163133f757160e31b8152600481018290526000907f00000000000000000000000000000000000000000000000000000000000000006001600160a01b0316906399fbab889060240161018060405180830381865afa15801561033e573d6000803e3d6000fd5b505050506040513d601f19601f820116820180604052508101906103629190610e2f565b50929c9b505050505050505050505050565b6000806000806103a67f000000000000000000000000000000000000000000000000000000000000000033308a610939565b6103d27f000000000000000000000000000000000000000000000000000000000000000033308b610939565b61041d7f00000000000000000000000000000000000000000000000000000000000000007f000000000000000000000000000000000000000000000000000000000000000089610a6e565b6104687f00000000000000000000000000000000000000000000000000000000000000007f00000000000000000000000000000000000000000000000000000000000000008a610a6e565b60006040518061016001604052807f00000000000000000000000000000000000000000000000000000000000000006001600160a01b031681526020017f00000000000000000000000000000000000000000000000000000000000000006001600160a01b031681526020017f000000000000000000000000000000000000000000000000000000000000000062ffffff1681526020018860020b81526020018760020b81526020018981526020018a81526020016000815260200160008152602001306001600160a01b03168152602001426103846105489190610f27565b9052604051634418b22b60e11b81529091506001600160a01b037f00000000000000000000000000000000000000000000000000000000000000001690638831645690610599908490600401610f40565b6080604051808303816000875af11580156105b8573d6000803e3d6000fd5b505050506040513d601f19601f820116820180604052508101906105dc9190611004565b604080516080810182523381526001600160801b0380861660208084019182527f00000000000000000000000000000000000000000000000000000000000000006001600160a01b039081168587019081527f000000000000000000000000000000000000000000000000000000000000000082166060870190815260008c8152600194859052978820965187549084166001600160a01b031991821617885594519387018054949096166fffffffffffffffffffffffffffffffff1990941693909317909455925160028501805491851691841691909117905551600390930180549390921692169190911790558490559297509095509350915082881115610714576107147f00000000000000000000000000000000000000000000000000000000000000003361070f868c611040565b610b89565b8189111561074b5761074b7f00000000000000000000000000000000000000000000000000000000000000003361070f858d611040565b50945094509450949050565b600080808061076f8686620d89e7196101ae81611053565b9299919850965090945092505050565b60008060007f00000000000000000000000000000000000000000000000000000000000000006001600160a01b03166399fbab88866040518263ffffffff1660e01b81526004016107d291815260200190565b61018060405180830381865afa1580156107f0573d6000803e3d6000fd5b505050506040513d601f19601f820116820180604052508101906108149190610e2f565b5050505097505050509450945050506040518060800160405280856001600160a01b03168152602001826001600160801b03168152602001846001600160a01b03168152602001836001600160a01b03168152506001600087815260200190815260200160002060008201518160000160006101000a8154816001600160a01b0302191690836001600160a01b0316021790555060208201518160010160006101000a8154816001600160801b0302191690836001600160801b0316021790555060408201518160020160006101000a8154816001600160a01b0302191690836001600160a01b0316021790555060608201518160030160006101000a8154816001600160a01b0302191690836001600160a01b031602179055509050505050505050565b604080516001600160a01b0385811660248301528481166044830152606480830185905283518084039091018152608490920183526020820180516001600160e01b03166323b872dd60e01b179052915160009283929088169161099d9190611075565b6000604051808303816000865af19150503d80600081146109da576040519150601f19603f3d011682016040523d82523d6000602084013e6109df565b606091505b5091509150818015610a09575080511580610a09575080806020019051810190610a0991906110a4565b610a665760405162461bcd60e51b8152602060048201526024808201527f5472616e7366657248656c7065723a205452414e534645525f46524f4d5f46416044820152631253115160e21b60648201526084015b60405180910390fd5b505050505050565b604080516001600160a01b038481166024830152604480830185905283518084039091018152606490920183526020820180516001600160e01b031663095ea7b360e01b1790529151600092839290871691610aca9190611075565b6000604051808303816000865af19150503d8060008114610b07576040519150601f19603f3d011682016040523d82523d6000602084013e610b0c565b606091505b5091509150818015610b36575080511580610b36575080806020019051810190610b3691906110a4565b610b825760405162461bcd60e51b815260206004820152601e60248201527f5472616e7366657248656c7065723a20415050524f56455f4641494c454400006044820152606401610a5d565b5050505050565b604080516001600160a01b038481166024830152604480830185905283518084039091018152606490920183526020820180516001600160e01b031663a9059cbb60e01b1790529151600092839290871691610be59190611075565b6000604051808303816000865af19150503d8060008114610c22576040519150601f19603f3d011682016040523d82523d6000602084013e610c27565b606091505b5091509150818015610c51575080511580610c51575080806020019051810190610c5191906110a4565b610b825760405162461bcd60e51b815260206004820152601f60248201527f5472616e7366657248656c7065723a205452414e534645525f4641494c4544006044820152606401610a5d565b6001600160a01b0381168114610cb257600080fd5b50565b600080600080600060808688031215610ccd57600080fd5b8535610cd881610c9d565b94506020860135610ce881610c9d565b935060408601359250606086013567ffffffffffffffff811115610d0b57600080fd5b8601601f81018813610d1c57600080fd5b803567ffffffffffffffff811115610d3357600080fd5b886020828401011115610d4557600080fd5b959894975092955050506020019190565b600060208284031215610d6857600080fd5b5035919050565b8060020b8114610cb257600080fd5b60008060008060808587031215610d9457600080fd5b84359350602085013592506040850135610dad81610d6f565b91506060850135610dbd81610d6f565b939692955090935050565b60008060408385031215610ddb57600080fd5b50508035926020909101359150565b8051610df581610c9d565b919050565b805162ffffff81168114610df557600080fd5b8051610df581610d6f565b80516001600160801b0381168114610df557600080fd5b6000806000806000806000806000806000806101808d8f031215610e5257600080fd5b8c516bffffffffffffffffffffffff81168114610e6e57600080fd5b9b50610e7c60208e01610dea565b9a50610e8a60408e01610dea565b9950610e9860608e01610dea565b9850610ea660808e01610dfa565b9750610eb460a08e01610e0d565b9650610ec260c08e01610e0d565b9550610ed060e08e01610e18565b6101008e01516101208f015191965094509250610ef06101408e01610e18565b9150610eff6101608e01610e18565b90509295989b509295989b509295989b565b634e487b7160e01b600052601160045260246000fd5b80820180821115610f3a57610f3a610f11565b92915050565b81516001600160a01b0316815261016081016020830151610f6c60208401826001600160a01b03169052565b506040830151610f83604084018262ffffff169052565b506060830151610f98606084018260020b9052565b506080830151610fad608084018260020b9052565b5060a083015160a083015260c083015160c083015260e083015160e0830152610100830151610100830152610120830151610ff46101208401826001600160a01b03169052565b5061014092830151919092015290565b6000806000806080858703121561101a57600080fd5b8451935061102a60208601610e18565b6040860151606090960151949790965092505050565b81810381811115610f3a57610f3a610f11565b60008160020b627fffff19810361106c5761106c610f11565b60000392915050565b6000825160005b81811015611096576020818601810151858301520161107c565b506000920191825250919050565b6000602082840312156110b657600080fd5b815180151581146110c657600080fd5b939250505056fea264697066735822122009364fc6107304905a7447673bf57a6b317f3872a73b1f8fff70247d2d34d88a64736f6c634300081a0033","linkReferences":{}},"methodIdentifiers":{"addLiquidity(uint256,uint256)":"9cd441da","addLiquidity(uint256,uint256,int24,int24)":"48cce9f8","getPositionLiquidity(uint256)":"1efeed33","lastPositionId()":"58354502","nonfungiblePositionManager()":"b44a2722","onERC721Received(address,address,uint256,bytes)":"150b7a02","poolFee()":"089fe6aa","positions(uint256)":"99fbab88","usdcToken()":"11eac855","wtiToken()":"353d8c95"},"id":40}