{"abi":[{"type":"constructor","inputs":[],"stateMutability":"nonpayable"},{"type":"function","name":"MIN_MINT_AMOUNT","inputs":[],"outputs":[{"name":"","type":"uint256","internalType":"uint256"}],"stateMutability":"view"},{"type":"function","name":"allowance","inputs":[{"name":"owner","type":"address","internalType":"address"},{"name":"spender","type":"address","internalType":"address"}],"outputs":[{"name":"","type":"uint256","internalType":"uint256"}],"stateMutability":"view"},{"type":"function","name":"approve","inputs":[{"name":"spender","type":"address","internalType":"address"},{"name":"value","type":"uint256","internalType":"uint256"}],"outputs":[{"name":"","type":"bool","internalType":"bool"}],"stateMutability":"nonpayable"},{"type":"function","name":"balanceOf","inputs":[{"name":"account","type":"address","internalType":"address"}],"outputs":[{"name":"","type":"uint256","internalType":"uint256"}],"stateMutability":"view"},{"type":"function","name":"decimals","inputs":[],"outputs":[{"name":"","type":"uint8","internalType":"uint8"}],"stateMutability":"view"},{"type":"function","name":"mint","inputs":[{"name":"to","type":"address","internalType":"address"},{"name":"amount","type":"uint256","internalType":"uint256"}],"outputs":[{"name":"","type":"bool","internalType":"bool"}],"stateMutability":"nonpayable"},{"type":"function","name":"name","inputs":[],"outputs":[{"name":"","type":"string","internalType":"string"}],"stateMutability":"view"},{"type":"function","name":"owner","inputs":[],"outputs":[{"name":"","type":"address","internalType":"address"}],"stateMutability":"view"},{"type":"function","name":"renounceOwnership","inputs":[],"outputs":[],"stateMutability":"nonpayable"},{"type":"function","name":"symbol","inputs":[],"outputs":[{"name":"","type":"string","internalType":"string"}],"stateMutability":"view"},{"type":"function","name":"totalSupply","inputs":[],"outputs":[{"name":"","type":"uint256","internalType":"uint256"}],"stateMutability":"view"},{"type":"function","name":"transfer","inputs":[{"name":"to","type":"address","internalType":"address"},{"name":"value","type":"uint256","internalType":"uint256"}],"outputs":[{"name":"","type":"bool","internalType":"bool"}],"stateMutability":"nonpayable"},{"type":"function","name":"transferFrom","inputs":[{"name":"from","type":"address","internalType":"address"},{"name":"to","type":"address","internalType":"address"},{"name":"value","type":"uint256","internalType":"uint256"}],"outputs":[{"name":"","type":"bool","internalType":"bool"}],"stateMutability":"nonpayable"},{"type":"function","name":"transferOwnership","inputs":[{"name":"newOwner","type":"address","internalType":"address"}],"outputs":[],"stateMutability":"nonpayable"},{"type":"event","name":"Approval","inputs":[{"name":"owner","type":"address","indexed":true,"internalType":"address"},{"name":"spender","type":"address","indexed":true,"internalType":"address"},{"name":"value","type":"uint256","indexed":false,"internalType":"uint256"}],"anonymous":false},{"type":"event","name":"OwnershipTransferred","inputs":[{"name":"previousOwner","type":"address","indexed":true,"internalType":"address"},{"name":"newOwner","type":"address","indexed":true,"internalType":"address"}],"anonymous":false},{"type":"event","name":"Transfer","inputs":[{"name":"from","type":"address","indexed":true,"internalType":"address"},{"name":"to","type":"address","indexed":true,"internalType":"address"},{"name":"value","type":"uint256","indexed":false,"internalType":"uint256"}],"anonymous":false},{"type":"error","name":"ERC20InsufficientAllowance","inputs":[{"name":"spender","type":"address","internalType":"address"},{"name":"allowance","type":"uint256","internalType":"uint256"},{"name":"needed","type":"uint256","internalType":"uint256"}]},{"type":"error","name":"ERC20InsufficientBalance","inputs":[{"name":"sender","type":"address","internalType":"address"},{"name":"balance","type":"uint256","internalType":"uint256"},{"name":"needed","type":"uint256","internalType":"uint256"}]},{"type":"error","name":"ERC20InvalidApprover","inputs":[{"name":"approver","type":"address","internalType":"address"}]},{"type":"error","name":"ERC20InvalidReceiver","inputs":[{"name":"receiver","type":"address","internalType":"address"}]},{"type":"error","name":"ERC20InvalidSender","inputs":[{"name":"sender","type":"address","internalType":"address"}]},{"type":"error","name":"ERC20InvalidSpender","inputs":[{"name":"spender","type":"address","internalType":"address"}]},{"type":"error","name":"OwnableInvalidOwner","inputs":[{"name":"owner","type":"address","internalType":"address"}]},{"type":"error","name":"OwnableUnauthorizedAccount","inputs":[{"name":"account","type":"address","internalType":"address"}]}],"bytecode":{"object":"0x608060405234801561001057600080fd5b50336040518060400160405280600981526020016810dc9d59194813da5b60ba1b8152506040518060400160405280600381526020016257544960e81b815250816003908161005f9190610323565b50600461006c8282610323565b5050506001600160a01b03811661009e57604051631e4fbdf760e01b8152600060048201526024015b60405180910390fd5b6100a7816100ce565b506100c9336100b86012600a6104e0565b6100c4906103e86104f6565b610120565b610520565b600580546001600160a01b038381166001600160a01b0319831681179093556040519116919082907f8be0079c531659141344cd1fd0a4f28419497f9722a3daafe3b4186f6b6457e090600090a35050565b6001600160a01b03821661014a5760405163ec442f0560e01b815260006004820152602401610095565b6101566000838361015a565b5050565b6001600160a01b03831661018557806002600082825461017a919061050d565b909155506101f79050565b6001600160a01b038316600090815260208190526040902054818110156101d85760405163391434e360e21b81526001600160a01b03851660048201526024810182905260448101839052606401610095565b6001600160a01b03841660009081526020819052604090209082900390555b6001600160a01b03821661021357600280548290039055610232565b6001600160a01b03821660009081526020819052604090208054820190555b816001600160a01b0316836001600160a01b03167fddf252ad1be2c89b69c2b068fc378daa952ba7f163c4a11628f55a4df523b3ef8360405161027791815260200190565b60405180910390a3505050565b634e487b7160e01b600052604160045260246000fd5b600181811c908216806102ae57607f821691505b6020821081036102ce57634e487b7160e01b600052602260045260246000fd5b50919050565b601f82111561031e57806000526020600020601f840160051c810160208510156102fb5750805b601f840160051c820191505b8181101561031b5760008155600101610307565b50505b505050565b81516001600160401b0381111561033c5761033c610284565b6103508161034a845461029a565b846102d4565b6020601f821160018114610384576000831561036c5750848201515b600019600385901b1c1916600184901b17845561031b565b600084815260208120601f198516915b828110156103b45787850151825560209485019460019092019101610394565b50848210156103d25786840151600019600387901b60f8161c191681555b50505050600190811b01905550565b634e487b7160e01b600052601160045260246000fd5b6001815b600184111561043257808504811115610416576104166103e1565b600184161561042457908102905b60019390931c9280026103fb565b935093915050565b600082610449575060016104da565b81610456575060006104da565b816001811461046c576002811461047657610492565b60019150506104da565b60ff841115610487576104876103e1565b50506001821b6104da565b5060208310610133831016604e8410600b84101617156104b5575081810a6104da565b6104c260001984846103f7565b80600019048211156104d6576104d66103e1565b0290505b92915050565b60006104ef60ff84168361043a565b9392505050565b80820281158282048414176104da576104da6103e1565b808201808211156104da576104da6103e1565b6109ca8061052f6000396000f3fe608060405234801561001057600080fd5b50600436106100ea5760003560e01c8063715018a61161008c578063a9059cbb11610066578063a9059cbb146101cd578063d56926a0146101e0578063dd62ed3e146101f0578063f2fde38b1461022957600080fd5b8063715018a6146101a05780638da5cb5b146101aa57806395d89b41146101c557600080fd5b806323b872dd116100c857806323b872dd14610142578063313ce5671461015557806340c10f191461016457806370a082311461017757600080fd5b806306fdde03146100ef578063095ea7b31461010d57806318160ddd14610130575b600080fd5b6100f761023c565b6040516101049190610813565b60405180910390f35b61012061011b36600461087d565b6102ce565b6040519015158152602001610104565b6002545b604051908152602001610104565b6101206101503660046108a7565b6102e8565b60405160128152602001610104565b61012061017236600461087d565b61030c565b6101346101853660046108e4565b6001600160a01b031660009081526020819052604090205490565b6101a86103fd565b005b6005546040516001600160a01b039091168152602001610104565b6100f7610411565b6101206101db36600461087d565b610420565b61013468056bc75e2d6310000081565b6101346101fe366004610906565b6001600160a01b03918216600090815260016020908152604080832093909416825291909152205490565b6101a86102373660046108e4565b61042e565b60606003805461024b90610939565b80601f016020809104026020016040519081016040528092919081815260200182805461027790610939565b80156102c45780601f10610299576101008083540402835291602001916102c4565b820191906000526020600020905b8154815290600101906020018083116102a757829003601f168201915b5050505050905090565b6000336102dc81858561046c565b60019150505b92915050565b6000336102f685828561047e565b6103018585856104fc565b506001949350505050565b600061031661055b565b6001600160a01b03831661037d5760405162461bcd60e51b8152602060048201526024808201527f5754493a2063616e6e6f74206d696e7420746f20746865207a65726f206164646044820152637265737360e01b60648201526084015b60405180910390fd5b68056bc75e2d631000008210156103ea5760405162461bcd60e51b815260206004820152602b60248201527f5754493a206d696e7420616d6f756e742062656c6f77206d696e696d756d202860448201526a31303020746f6b656e732960a81b6064820152608401610374565b6103f48383610588565b50600192915050565b61040561055b565b61040f60006105c2565b565b60606004805461024b90610939565b6000336102dc8185856104fc565b61043661055b565b6001600160a01b03811661046057604051631e4fbdf760e01b815260006004820152602401610374565b610469816105c2565b50565b6104798383836001610614565b505050565b6001600160a01b0383811660009081526001602090815260408083209386168352929052205460001981146104f657818110156104e757604051637dc7a0d960e11b81526001600160a01b03841660048201526024810182905260448101839052606401610374565b6104f684848484036000610614565b50505050565b6001600160a01b03831661052657604051634b637e8f60e11b815260006004820152602401610374565b6001600160a01b0382166105505760405163ec442f0560e01b815260006004820152602401610374565b6104798383836106e9565b6005546001600160a01b0316331461040f5760405163118cdaa760e01b8152336004820152602401610374565b6001600160a01b0382166105b25760405163ec442f0560e01b815260006004820152602401610374565b6105be600083836106e9565b5050565b600580546001600160a01b038381166001600160a01b0319831681179093556040519116919082907f8be0079c531659141344cd1fd0a4f28419497f9722a3daafe3b4186f6b6457e090600090a35050565b6001600160a01b03841661063e5760405163e602df0560e01b815260006004820152602401610374565b6001600160a01b03831661066857604051634a1406b160e11b815260006004820152602401610374565b6001600160a01b03808516600090815260016020908152604080832093871683529290522082905580156104f657826001600160a01b0316846001600160a01b03167f8c5be1e5ebec7d5bd14f71427d1e84f3dd0314c0f7b2291e5b200ac8c7c3b925846040516106db91815260200190565b60405180910390a350505050565b6001600160a01b0383166107145780600260008282546107099190610973565b909155506107869050565b6001600160a01b038316600090815260208190526040902054818110156107675760405163391434e360e21b81526001600160a01b03851660048201526024810182905260448101839052606401610374565b6001600160a01b03841660009081526020819052604090209082900390555b6001600160a01b0382166107a2576002805482900390556107c1565b6001600160a01b03821660009081526020819052604090208054820190555b816001600160a01b0316836001600160a01b03167fddf252ad1be2c89b69c2b068fc378daa952ba7f163c4a11628f55a4df523b3ef8360405161080691815260200190565b60405180910390a3505050565b602081526000825180602084015260005b818110156108415760208186018101516040868401015201610824565b506000604082850101526040601f19601f83011684010191505092915050565b80356001600160a01b038116811461087857600080fd5b919050565b6000806040838503121561089057600080fd5b61089983610861565b946020939093013593505050565b6000806000606084860312156108bc57600080fd5b6108c584610861565b92506108d360208501610861565b929592945050506040919091013590565b6000602082840312156108f657600080fd5b6108ff82610861565b9392505050565b6000806040838503121561091957600080fd5b61092283610861565b915061093060208401610861565b90509250929050565b600181811c9082168061094d57607f821691505b60208210810361096d57634e487b7160e01b600052602260045260246000fd5b50919050565b808201808211156102e257634e487b7160e01b600052601160045260246000fdfea2646970667358221220b9619f92c995d3ee5fe66f8c4d82400ff32a9b25419ee336fd82e29bec332cde64736f6c634300081a0033","linkReferences":{}},"methodIdentifiers":{"MIN_MINT_AMOUNT()":"d56926a0","allowance(address,address)":"dd62ed3e","approve(address,uint256)":"095ea7b3","balanceOf(address)":"70a08231","decimals()":"313ce567","mint(address,uint256)":"40c10f19","name()":"06fdde03","owner()":"8da5cb5b","renounceOwnership()":"715018a6","symbol()":"95d89b41","totalSupply()":"18160ddd","transfer(address,uint256)":"a9059cbb","transferFrom(address,address,uint256)":"23b872dd","transferOwnership(address)":"f2fde38b"},"id":26}